:020000040800F2
:1000000000500020311800085F0600086106000853
:100010006306000865060008670600080000000087
:100020000000000000000000000000006906000859
:100030006B060008000000006D0600086F0600084F
:10004000791800087918000879180008791800084C
:10005000791800087918000879180008791800083C
:10006000791800087918000879180008791800082C
:10007000791800087918000879180008791800081C
:10008000791800087918000879180008791800080C
:1000900079180008791800087918000879180008FC
:1000A00079180008791800087918000879180008EC
:1000B00079180008791800087918000879180008DC
:1000C00079180008791800087918000879180008CC
:1000D00079180008CD03000879180008791800087D
:1000E0007918000879180008791800080000000045
:1000F0000000000000000000000000000000000000
:0C01000000000000000000005FF808F1A3
:10010C00044B05481B1A062B02D9044B03B11847A4
:10011C00704700BF0F0400200C04002000000000FA
:10012C0005490648091A891001EBD171491002D012
:10013C00034B03B1184770470C0400200C0400203B
:10014C000000000010B5064C237843B9FFF7D8FF28
:10015C00044B13B10448AFF300800123237010BD8E
:10016C000C040020000000007C18000808B5084BA7
:10017C001BB108490848AFF300800848036813B95D
:10018C00BDE80840CCE7064B002BF9D09847F7E7C1
:10019C0000000000100400207C1800080C04002053
:1001AC000000000070B50F4E0F4D761BB61018BF37
:1001BC00002405D0013455F8043B9847A642F9D1E8
:1001CC000A4E0B4D01F054FB761BB61018BF0024E1
:1001DC0006D0013455F8043B9847A642F9D170BDBE
:1001EC0070BD00BFC0180008C0180008C418000873
:1001FC00C0180008844641EA000313F0030349D1F8
:10020C00403A23D30B6803604B6843608B68836070
:10021C00CB68C3600B6903614B6943618B69836174
:10022C00CB69C3610B6A03624B6A43628B6A83625C
:10023C00CB6AC3620B6B03634B6B43638B6B836344
:10024C00CB6BC36340304031403ADBD230320BD3FE
:10025C000B6803604B6843608B688360CB68C3603A
:10026C0010301031103AF3D20C3205D351F8043B54
:10027C0040F8043B043AF9D2043208D0D2071CBF30
:10028C0011F8013B00F8013B01D30B880380604659
:10029C00704700BF082A13D38B07B1D010F00303AB
:1002AC00AED0C3F10403D21ADB071CBF11F8013B1B
:1002BC0000F8013BA4D331F8023B20F8023B9FE746
:1002CC00043AD9D3013A11F8013B00F8013BF9D2B9
:1002DC000B7803704B7843708B7883706046704753
:1002EC0070B4860746D0541E002A41D0CAB20346C9
:1002FC0002E014F1FF343BD303F8012B9D07F8D136
:10030C00032C2ED9CDB245EA05250F2C45EA05451F
:10031C0019D9264603F11002103E0F2E42F8105C3C
:10032C0042F80C5C42F8085C42F8045C02F11002E2
:10033C00F2D8A4F1100222F00F0204F00F041032D4
:10034C00032C13440DD91E462246043A032A46F8C0
:10035C00045BFAD8221F22F003020432134404F087
:10036C0003042CB1C9B21C4403F8011B9C42FBD101
:10037C0070BC704714460346C2E700BF84B00F4BF5
:10038C009A6942F020029A619A6902F02002019265
:10039C00019A9A6942F004029A619A6902F0040285
:1003AC000292029A9A6942F008029A619B6903F0E0
:1003BC0008030393039B04B0704700BF0010024076
:1003CC0008B5144B1B6813F0200F22D0114A536848
:1003DC00DBB25360104A126840F2FE318A4210D8E8
:1003EC00762B05D00D498B5401320B4B1A6008BD8E
:1003FC000022094B1A604FF48061084800F0C4F8E1
:10040C0008BD0022044B1A604FF48061034800F0D1
:10041C00BBF808BD0038014028040020C0040020AF
:10042C0072B6FEE708B50A480A4B03600A4B4360F4
:10043C0000238360C3604FF4804202614361836197
:10044C00C361036200F010FB00B908BDFFF7E8FFC1
:10045C002C04002000540040A086010008B50A4876
:10046C000A4B03604FF4E133436000238360C360A5
:10047C0003610C2242618361C36101F0A3F900B9ED
:10048C0008BDFFF7CDFF00BF8004002000380140FD
:10049C0000B591B02822002106A8FFF721FF002308
:1004AC0001930293039304930593012206924FF454
:1004BC00803307930A9202220D920E934FF400237D
:1004CC000F9306A800F0BEFC78B90F23019302230A
:1004DC0002930023039304930593012101A800F0D8
:1004EC00EFFE20B911B05DF804FBFFF799FFFFF7A1
:1004FC0097FF000010B500F06BFCFFF7C9FFFFF78A
:10050C003DFFFFF78FFFFFF7A9FF124B1A68D36867
:10051C0043F02003D36000F049F8002303E00021EE
:10052C000D4AD1540133B3F5806FF8DB002408E099
:10053C00E30180220949194407481844FFF75AFE81
:10054C000134072CF4DD4FF48061034800F01CF8F3
:10055C00FEE700BF80040020C00400200000002043
:10056C0000B587B006AA02F8010D6423029301239B
:10057C000193009200227821024800F04FFB07B053
:10058C005DF804FB2C04002000B585B064230293B5
:10059C0089B201910090012340227821024800F099
:1005AC003DFB05B05DF804FB2C04002008B5AE2023
:1005BC00FFF7D6FF2020FFF7D3FF0020FFF7D0FF77
:1005CC00B020FFF7CDFFC820FFF7CAFFA120FFF72F
:1005DC00C7FF0020FFF7C4FF1020FFF7C1FF40202A
:1005EC00FFF7BEFF8120FFF7BBFFFF20FFF7B8FF2F
:1005FC00A820FFF7B5FF3F20FFF7B2FFA420FFF7BD
:10060C00AFFFD320FFF7ACFF0020FFF7A9FFD520E9
:10061C00FFF7A6FFF020FFF7A3FFD920FFF7A0FFFD
:10062C002220FFF79DFFDA20FFF79AFF1220FFF739
:10063C0097FFDB20FFF794FF2020FFF791FF8D2021
:10064C00FFF78EFF1420FFF78BFFAF20FFF788FF1B
:10065C0008BDFEE7FEE7FEE7FEE7FEE770477047E2
:10066C00704708B500F0C6FB08BD000082B00E4B09
:10067C009A6942F001029A619A6902F001020092B1
:10068C00009ADA6942F08052DA61DB6903F0805338
:10069C000193019B054A536823F0E06343F0007318
:1006AC00536002B0704700BF0010024000000140D0
:1006BC0010B586B00023029303930493059302684C
:1006CC00114B9A4201D006B010BD104CA36943F0F7
:1006DC000803A361A36903F008030093009BC023E4
:1006EC000293122303930323059302A9084800F0F5
:1006FC00C1FEE36943F40013E361E36903F40013FF
:10070C000193019BDFE700BF005400400010024042
:10071C00000C014030B587B000230293039304937F
:10072C00059302681B4B9A4201D007B030BD03F50C
:10073C0058439A6942F480429A619A6902F4804261
:10074C000092009A9A6942F004029A619B6903F044
:10075C0004030193019B4FF4007302930223039350
:10076C00032305930C4D02A9284600F083FE4FF499
:10077C008063029300240394049402A9284600F099
:10078C0079FE22462146252000F07EFF252000F030
:10079C00ADFFCAE7003801400008014003685A6900
:1007AC0012F4806F11D06FF480625A6100230363DE
:1007BC00202280F83D2080F83E30026C42F004028A
:1007CC00026480F83C300120704700207047F8B577
:1007DC0006460C4617461D4622E000F017FB069B0A
:1007EC00C01A854200D3DDB900233363202286F87A
:1007FC003D2086F83E30326C42F02002326486F89E
:10080C003C300120F8BD33685B6924EA03039BB2DA
:10081C00B3FA83F35B09BB420FD1B5F1FF3FDCD1D7
:10082C00C4F30743012BEED033689B6924EA03031E
:10083C009BB2B3FA83F35B09EDE70020F8BDF8B582
:10084C0004460D4616461F463CE01A6842F40072F8
:10085C001A6023686FF480625A610023236320229C
:10086C0084F83D2084F83E30226C42F0040222646D
:10087C0084F83C300120F8BD00F0C8FAC01B864259
:10088C0000D3FEB900232363202284F83D2084F892
:10089C003E30226C42F02002226484F83C3001206D
:1008AC00F8BD23685B6925EA03039BB2003318BFCC
:1008BC000123A3B123685A6912F4806FC5D1B6F134
:1008CC00FF3FD9D1C5F30743012BEAD023689B69BD
:1008DC0025EA03039BB2003318BF0123E9E700208C
:1008EC00F8BD70B504460D46164623685B6913F0D7
:1008FC00800F1CD12046FFF751FFD0B9B5F1FF3F57
:10090C00F3D000F083FA801B854201D3002DECD18B
:10091C0000232363202284F83D2084F83E30226C8F
:10092C0042F02002226484F83C30012070BD00208B
:10093C0070BD012070BD00002DE9F04184B004466B
:10094C00884616461F460B9D0268136843F4807355
:10095C00136000950A9B00224FF00111FFF737FF3F
:10096C0060B123681B6813F4807F4FD04FF4007381
:10097C0023640323184604B0BDE8F081226808F014
:10098C00FE0313612B460A9A21492046FFF757FFB5
:10099C0008B10123EEE70023039323685A690392FD
:1009AC009B690393039B2A460A992046FFF799FFFC
:1009BC00034658B1236C042B01D00123DAE72268DB
:1009CC00136843F4007313600123D3E7012F0ED097
:1009DC002368320A1A612A460A992046FFF781FFDA
:1009EC00034678B1236C042B05D00123C2E722689F
:1009FC00F6B21661BEE72268136843F40073136005
:100A0C000123B7E72268F6B21661B3E70323B1E717
:100A1C000200010070B504460D46164623685B695A
:100A2C0013F0040F1CD12046FFF7B8FED0B9B5F176
:100A3C00FF3FF3D000F0EAF9801B854201D3002D73
:100A4C00ECD100232363202284F83D2084F83E302F
:100A5C00226C42F02002226484F83C30012070BDEC
:100A6C00002070BD012070BD002800F0C880F8B5D2
:100A7C00044690F83D30002B75D0242384F83D308B
:100A8C002268136823F0010313602268136843F48F
:100A9C00004313602268136823F40043136000F0D2
:100AAC00C9FC6268584B9A4262D8584B98428CBF2A
:100ABC0000230123002B40F0A480554BA3FB002303
:100ACC009A0C21684B6823F03F0313434B60256855
:100ADC00296A21F03F0166684B4B9E424ED8531C4D
:100AEC000B432B622268D16921F44F4121F0FF01A5
:100AFC006368454DAB424BD801385B00B0FBF3F358
:100B0C000133C3F30B03042B38BF04230B43D36112
:100B1C0021680B6823F0C003E269206A0243134387
:100B2C000B6021688B6823F4034323F0FF032269D5
:100B3C00E068024313438B602168CB6823F0FF030A
:100B4C006269A06902431343CB602268136843F0C7
:100B5C000103136000202064202384F83D302063BF
:100B6C0084F83E00F8BD80F83C30FFF7A1FD84E727
:100B7C00284B98428CBF002301239BE74FF49673BC
:100B8C0003FB02F3244AA2FB03239B090133A7E7CF
:100B9C00A668BEB9451E03EB4307B5FBF7F5013557
:100BAC00C5F30B05B5FA85F56D0935BBC6B901382A
:100BBC0003EB4303B0FBF3F30133C3F30B0343F435
:100BCC000043A3E7451E03EB830707EB8707B5FB41
:100BDC00F7F50135C5F30B05B5FA85F56D09E4E7B5
:100BEC00013803EB830303EB8303B0FBF3F3013313
:100BFC00C3F30B0343F4404388E7012386E701204A
:100C0C0070470120F8BD00BFA08601007F841E0044
:100C1C0083DE1B43FF083D00D34D62102DE9F041EC
:100C2C0082B004460E461746984600F0EFF894F84A
:100C3C003D30DBB2202B04D00223184602B0BDE8B5
:100C4C00F08105460090192301224C492046FFF7FC
:100C5C00BEFD08B10223F0E794F83C30012B00F004
:100C6C008880012384F83C3023681A6812F0010F45
:100C7C0003D11A6842F001021A602268136823F447
:100C8C0000631360212384F83D30402384F83E3008
:100C9C0000232364089B6362BDF824306385638D55
:100CAC002385374BE36201950A9B009343463A46F2
:100CBC0031462046FFF740FE00285CD1238D002BE7
:100CCC0036D02A460A992046FFF70BFE20BB236834
:100CDC00626A12781A61616A4B1C6362228D013A56
:100CEC0092B22285638D9BB2013B9BB263852368D4
:100CFC00586910F0040FE1D0002ADFD04A781A614D
:100D0C00636A01336362238D013B2385638D9BB240
:100D1C00013B9BB26385D1E7236C042B01D00123EB
:100D2C008BE72268136843F400731360012384E794
:100D3C002A460A992046FFF76DFE034658B1236CEC
:100D4C00042B01D0012378E72268136843F4007365
:100D5C001360012371E721680A6842F400720A608B
:100D6C00202284F83D20002284F83E2084F83C2088
:100D7C0063E7022361E701235FE700BF0200100075
:100D8C000000FFFF10B504460E4B18784FF47A7331
:100D9C00B3FBF0F30C4A1068B0FBF3F000F0B4FCBA
:100DAC0068B90F2C01D9012010BD002221464FF04B
:100DBC00FF3000F069FC054B1C60002010BD0120C9
:100DCC0010BD00BF00040020080400200404002013
:100DDC0008B5074A136843F010031360032000F0B2
:100DEC0041FC0020FFF7CEFFFFF740FC002008BDC0
:100DFC0000200240034A1168034B1B780B4413601C
:100E0C00704700BFC008002000040020014B186888
:100E1C00704700BFC008002082B0084B1B68084A0E
:100E2C00A2FB03235B0A00FB03F0019000BF019BB4
:100E3C005A1E0192002BF9D102B070470804002011
:100E4C00D34D6210002800F0F58170B582B00446D5
:100E5C00036813F0010F3DD0AB4B5B6803F00C0340
:100E6C00042B2ED0A84B5B6803F00C03082B23D06B
:100E7C006368B3F5803F51D0002B55D103F180430B
:100E8C0003F504331A6822F480321A601A6822F4CB
:100E9C0080221A606368002B60D0FFF7B7FF05460D
:100EAC00994B1B6813F4003F14D1FFF7AFFF401BA5
:100EBC006428F5D90320C2E1934B5B6813F4803F9F
:100ECC00D6D0914B1B6813F4003F03D06368002B02
:100EDC0000F0B281236813F0020F65D08A4B5B6877
:100EEC0013F00C0F4ED0884B5B6803F00C03082BEF
:100EFC0043D02369002B79D00122844B1A60FFF771
:100F0C0085FF0546804B1B6813F0020F65D1FFF778
:100F1C007DFF401B0228F5D9032090E17A4A136823
:100F2C0043F480331360B5E7B3F5A02F09D0764BAB
:100F3C001A6822F480321A601A6822F480221A602D
:100F4C00A8E703F18043A3F53C331A6842F48022EE
:100F5C001A601A6842F480321A609BE7FFF756FF5A
:100F6C000546694B1B6813F4003FB3D0FFF74EFFE7
:100F7C00401B6428F5D9032061E1634B5B6813F4D3
:100F8C00803FB6D1604B1B6813F0020F04D023696D
:100F9C00012B01D0012052E15B4A136823F0F803C6
:100FAC00616943EAC1031360236813F0080F32D060
:100FBC00A369002B6ED00122554B1A60FFF726FF58
:100FCC000546514B5B6A13F0020F21D1FFF71EFF50
:100FDC00401B0228F5D9032031E14B4A136823F05A
:100FEC00F803616943EAC1031360DDE70022474B54
:100FFC001A60FFF70BFF0546434B1B6813F0020FFB
:10100C00D2D0FFF703FF401B0228F5D9032016E1CD
:10101C000120FFF701FF236813F0040F00F0988004
:10102C00394BDB6913F0805F46D1374BDA6942F0FC
:10103C008052DA61DB6903F080530193019B012537
:10104C00344B1B6813F4807F38D0E368012B49D0F4
:10105C00002B4DD103F1804303F504331A6A22F0BF
:10106C0001021A621A6A22F004021A62E368002B67
:10107C005CD0FFF7CBFE0646234B1B6A13F0020F26
:10108C0065D1FFF7C3FE801B41F288339842F3D938
:10109C000320D4E000221E4B1A60FFF7B7FE054672
:1010AC00194B5B6A13F0020FB5D0FFF7AFFE401B74
:1010BC000228F5D90320C2E00025C1E7154A1368C0
:1010CC0043F480731360FFF7A1FE0646114B1B68B7
:1010DC0013F4807FB9D1FFF799FE801B6428F5D9F2
:1010EC000320ACE0084A136A43F001031362BDE726
:1010FC00052B11D0044B1A6A22F001021A621A6AEB
:10110C0022F004021A62B1E70010024000004242D1
:10111C0080044242007000404C4B1A6A42F00402B8
:10112C001A621A6A42F001021A629FE7FFF76EFE1A
:10113C000646464B1B6A13F0020F08D0FFF766FEFB
:10114C00801B41F288339842F3D9032077E0E5B94C
:10115C00E369002B72D03D4A526802F00C02082A57
:10116C0056D0022B17D00022394B1A60FFF74EFED7
:10117C000446364B1B6813F0007F47D0FFF746FE42
:10118C00001B0228F5D9032059E0304AD36923F01B
:10119C008053D361DCE700222D4B1A60FFF736FE3B
:1011AC0005462A4B1B6813F0007F06D0FFF72EFE76
:1011BC00401B0228F5D9032041E0236AB3F5803F98
:1011CC001AD022494B6823F47413226A606A0243D2
:1011DC0013434B6001221E4B1A60FFF717FE0446A7
:1011EC001A4B1B6813F0007F0ED1FFF70FFE001B8C
:1011FC000228F5D9032022E0144A536823F4003363
:10120C00A1680B435360DCE7002018E0002016E0D7
:10121C00012B16D00D4B5B6803F48031226A91428E
:10122C0001D001200BE003F47013626A93420AD0E0
:10123C00012004E001207047012000E0002002B0F2
:10124C0070BD0120FBE70020F9E700BF0010024051
:10125C006000424210B586B0154C94E80F000DF1B9
:10126C00180E0EE90F00238AADF80430114B5B68A1
:10127C0003F00C02082A18D1C3F38342724412F80B
:10128C00102C13F4803F03D10B4800FB02F00DE04F
:10129C00084B5B68C3F34043734413F8143C074892
:1012AC0000FB02F0B0FBF3F000E0044806B010BD08
:1012BC00941800080010024000093D0000127A004A
:1012CC00002800F0A38070B50446524B1B6803F055
:1012DC0007038B420CD24F4A136823F007030B43CE
:1012EC001360136803F00703994201D0012070BD0D
:1012FC00236813F0020F17D013F0040F04D0464AE2
:10130C00536843F4E0635360236813F0080F04D070
:10131C00414A536843F4605353603F4A536823F087
:10132C00F003A068034353600D46236813F0010FCC
:10133C0031D06368012B20D0022B25D0364A12689D
:10134C0012F0020F64D034494A6822F003021343AE
:10135C004B60FFF75BFD06462F4B5B6803F00C03FD
:10136C006268B3EB820F16D0FFF750FD801B41F281
:10137C0088339842F0D9032070BD274A126812F4C2
:10138C00003FE0D1012070BD234A126812F0007FAB
:10139C00D9D1012070BD1F4B1B6803F007039D4280
:1013AC000CD21C4A136823F007032B4313601368F9
:1013BC0003F007039D4201D0012070BD236813F098
:1013CC00040F06D0144A536823F4E063E1680B431E
:1013DC005360236813F0080F07D00F4A536823F4A7
:1013EC006053216943EAC1035360FFF733FF0A4B93
:1013FC005B68C3F30313094AD35CD840084B1860ED
:10140C00084B1868FFF7BEFC002070BD0120704728
:10141C00012070BD0020024000100240A8180008F6
:10142C000804002004040020014B1868704700BF1A
:10143C000804002008B5FFF7F7FF044B5B68C3F303
:10144C000223034AD35CD84008BD00BF0010024001
:10145C00B818000808B5FFF7E7FF044B5B68C3F347
:10146C00C223034AD35CD84008BD00BF0010024021
:10147C00B8180008F0B583B00026344671E0002D92
:10148C0000F0A280012D00D1CE68FF2B00F2B080BD
:10149C008646FF2B00F2AF80A500DEF800200F2758
:1014AC00AF4022EA070206FA05F52A43CEF80020DF
:1014BC004A6812F0805F53D0644A956945F0010583
:1014CC009561926902F001020192019AA508AF1C84
:1014DC005F4A52F8272004F00307BF004FF00F0EAD
:1014EC000EFA07FE22EA0E02DFF874E1704500F0F6
:1014FC0089800EF5806E704500F087800EF5806E49
:10150C00704500F085800EF5806E704577D04FF0F9
:10151C00040E0EFA07F73A4302354D4F47F82520D3
:10152C004A6812F4803F76D04A4D2A681A432A60E2
:10153C004A6812F4003F74D0464D6A681A436A60D8
:10154C004A6812F4801F72D0424DAA681A43AA60EE
:10155C004A6812F4001F70D03E4DEA681343EB60EA
:10156C0001340B6833FA04F26DD00122A24013400F
:10157C009A42F5D14D68122D30D00BD8022D2AD0BD
:10158C007FF67DAF032D2FD0112D7FF47EAFCE686B
:10159C0004367AE7304FBD4216D00CD92F4FBD42DE
:1015AC0012D007F58037BD420ED0A7F58017BD428B
:1015BC007FF46BAF08E0A7F58017BD4204D007F5A8
:1015CC008037BD427FF461AF8D687DB1012D08D0AD
:1015DC004261082659E7CE68083656E7CE680C36C5
:1015EC0053E70261082650E700264EE704264CE735
:1015FC0000F1040E4DE7A4F10805AD004DE74FF0E6
:10160C00030E86E74FF0000E83E74FF0010E80E7E4
:10161C004FF0020E7DE70F4D2A6822EA03022A6082
:10162C0086E70C4D6A6822EA03026A6088E7094D76
:10163C00AA6822EA0302AA608AE7064DEA6822EA4F
:10164C000303EB608CE703B0F0BD00BF0010024059
:10165C000000014000040140000021100000311086
:10166C0000080140074AD36823F4E0631B041B0CF9
:10167C00000200F4E060184340F0BF6040F400301A
:10168C00D060704700ED00E030B4164BDB68C3F35C
:10169C000223C3F10704042C28BF04241D1D062DAE
:1016AC0017D9033B012505FA04F4013C214099406C
:1016BC0005FA03F3013B1340194300280BDB090126
:1016CC00C9B200F1604000F5614080F8001330BCF5
:1016DC0070470023E6E700F00F000901C9B2024B86
:1016EC001954F4E700ED00E014ED00E0002808DBED
:1016FC00420900F01F00012303FA00F0014B43F8EC
:10170C002200704700E100E00138B0F1807F0AD27E
:10171C00064B5860F021064A82F82310002098608E
:10172C0007221A6070470120704700BF10E000E0EC
:10173C0000ED00E038B504460268136923F4405309
:10174C00C1680B43136183680269134342691343F5
:10175C000168CA6822F4B05222F00C021343CB6029
:10176C000268536923F4407381690B435361026827
:10177C00124B9A421FD0FFF75DFE216800EB8000F0
:10178C0000EB800063689B00B0FBF3F00C4DA5FBF5
:10179C0000325409642202FB140213013233A5FBFC
:1017AC0003235B0903F0F00202EB041203F00F03B6
:1017BC0013448B6038BDFFF74DFEDEE70038014067
:1017CC001F85EB5158B310B5044690F839300BB364
:1017DC00242384F839302268D36823F40053D3606F
:1017EC002046FFF7A7FF2268136923F49043136187
:1017FC002268536923F02A0353612268D36843F4A7
:10180C000053D3600020E063202384F8393084F83F
:10181C003A3010BD80F83830FEF77CFFD8E7012055
:10182C0070477047002103E00B4B5B584350043169
:10183C000A480B4B42189A42F6D30A4A02E000239C
:10184C0042F8043B084B9A42F9D3FFF7EAFFFEF744
:10185C00A9FCFEF74FFE7047C818000800000020D6
:10186C000C0400200C040020C4080020FEE700003B
:10187C00F8B500BFF8BC08BC9E467047F8B500BF71
:08188C00F8BC08BC9E46704741
:1018940002030405060708090A0B0C0D0E0F1010AD
:1018A4000102000000000000000000000102030427
:0C18B40006070809000000000102030400
:0418C00079010008A2
:0418C40051010008C6
:1018C800FFFFFFC7C7C7C7C7C7C70707073F3F3FD0
:1018D800F8F8F8383838070707070707070707072A
:1018E80007070707070707070707070707383838ED
:1018F800F8F8F83F3F3F070707C7C7C7C7C7C7C7B5
:10190800FFFFFF00000000000000000000000000D2
:1019180000000000000000000000000000000000BF
:1019280000000000000000000000000000000000AF
:10193800000000000000000000000000000000009F
:10194800FFFFFFFFFFFFFFFFFFFFFCFCFC1C1C1C51
:101958000303030000000000000000000000000076
:10196800000000000000000000000000000000006F
:101978000303031C1C1CFCFCFCFFFFFFFFFFFFFF15
:10198800FFFFFF0000000000000000000000000052
:10199800000000000000000000000000000000003F
:1019A800000000000000000000000000000000002F
:1019B800000000000000000000000000000000001F
:1019C800070707FFFFFF3F3F3F3F070707C0C0C0AC
:1019D800383838070707C0C0C0C0C0C0C000000002
:1019E800000000000000C0C0C0C0C0C0C00707079A
:1019F800383838C0C0C00707073F3F3F3FFFFFFFE9
:101A080007070700000000000000000000000000B9
:101A180000000000000000000000000000000000BE
:101A280000000000000000000000000000000000AE
:101A3800000000000000000000000000000000009E
:101A4800000000FFFFFF00000000FCFCFC03030394
:101A5800000000FCFCFCE3E3E3E30303031C1C1CA1
:101A6800E0E0E01C1C1C030303E3E3E3E3FCFCFCF1
:101A7800000000030303FCFCFC00000000FFFFFF64
:101A8800000000000000000000000000000000004E
:101A9800000000000000000000000000000000003E
:101AA800000000000000000000000000000000002E
:101AB800000000000000000000000000000000001E
:101AC800000000FFFFFF07070707C7C7C7383838F8
:101AD8003F3F3F0000003F3F3F3F00000000000045
:101AE8000000000000000000003F3F3F3F000000F2
:101AF8003F3F3F383838C7C7C707070707FFFFFF0B
:101B080000000000000000000000000000000000CD
:101B180000000000000000000000000000000000BD
:101B280000000000000000000000000000000000AD
:101B3800000000000000000000000000000000009D
:101B48000000001F1F1FE0E0E0E01F1F1FE0E0E0B3
:101B580000000000000000000000000000E0E0E0DD
:101B6800E0E0E0E0E0E0000000000000000000002D
:101B7800000000E0E0E01F1F1FE0E0E0E01F1F1F83
:101B8800000000000000000000000000000000004D
:101B9800000000000000000000000000000000003D
:101BA800000000000000000000000000000000002D
:101BB800000000000000000000000000000000001D
:101BC80000000000000007070707383838F8F8F861
:101BD800070707383838C0C0C0C000000038383898
:101BE800383838383838000000C0C0C0C0383838F5
:101BF800070707F8F8F8383838070707070000001C
:101C080000000000000000000000000000000000CC
:101C180000000000000000000000000000000000BC
:101C280000000000000000000000000000000000AC
:101C3800000000000000000000000000000000009C
:101C48000000000000000000000000000003030383
:101C5800000000000000030303031C1C1C1C1C1CC8
:101C68001C1C1C1C1C1C1C1C1C0303030300000064
:101C78000000000303030000000000000000000053
:101C8800000000000000000000000000000000004C
:101C9800000000000000000000000000000000003C
:101CA800000000000000000000000000000000002C
:101CB800000000000000000000000000000000001C
:0C1CC80001000000100000000024F400E7
:0400000508001831A6
:00000001FF
